{
  "address": "0x9cC4a49667928Cba39BBb9d271BAC6736B122516",
  "abi": [
    {
      "inputs": [
        {
          "internalType": "address",
          "name": "_brevisRequest",
          "type": "address"
        }
      ],
      "stateMutability": "nonpayable",
      "type": "constructor"
    },
    {
      "inputs": [
        {
          "internalType": "address",
          "name": "owner",
          "type": "address"
        }
      ],
      "name": "OwnableInvalidOwner",
      "type": "error"
    },
    {
      "inputs": [
        {
          "internalType": "address",
          "name": "account",
          "type": "address"
        }
      ],
      "name": "OwnableUnauthorizedAccount",
      "type": "error"
    },
    {
      "anonymous": false,
      "inputs": [
        {
          "indexed": false,
          "internalType": "uint64",
          "name": "blockNum",
          "type": "uint64"
        },
        {
          "indexed": false,
          "internalType": "address",
          "name": "pool",
          "type": "address"
        },
        {
          "indexed": false,
          "internalType": "uint248",
          "name": "amount",
          "type": "uint248"
        },
        {
          "indexed": false,
          "internalType": "bool",
          "name": "useAmount0",
          "type": "bool"
        }
      ],
      "name": "DepthAttested",
      "type": "event"
    },
    {
      "anonymous": false,
      "inputs": [
        {
          "indexed": true,
          "internalType": "address",
          "name": "previousOwner",
          "type": "address"
        },
        {
          "indexed": true,
          "internalType": "address",
          "name": "newOwner",
          "type": "address"
        }
      ],
      "name": "OwnershipTransferred",
      "type": "event"
    },
    {
      "inputs": [
        {
          "internalType": "bytes32[]",
          "name": "_appVkHashes",
          "type": "bytes32[]"
        },
        {
          "internalType": "bytes[]",
          "name": "_appCircuitOutputs",
          "type": "bytes[]"
        }
      ],
      "name": "brevisBatchCallback",
      "outputs": [],
      "stateMutability": "nonpayable",
      "type": "function"
    },
    {
      "inputs": [
        {
          "internalType": "bytes32",
          "name": "_appVkHash",
          "type": "bytes32"
        },
        {
          "internalType": "bytes",
          "name": "_appCircuitOutput",
          "type": "bytes"
        }
      ],
      "name": "brevisCallback",
      "outputs": [],
      "stateMutability": "nonpayable",
      "type": "function"
    },
    {
      "inputs": [],
      "name": "brevisRequest",
      "outputs": [
        {
          "internalType": "address",
          "name": "",
          "type": "address"
        }
      ],
      "stateMutability": "view",
      "type": "function"
    },
    {
      "inputs": [
        {
          "internalType": "bytes",
          "name": "o",
          "type": "bytes"
        }
      ],
      "name": "mockDecode",
      "outputs": [
        {
          "internalType": "uint64",
          "name": "blockNum",
          "type": "uint64"
        },
        {
          "internalType": "address",
          "name": "pool",
          "type": "address"
        },
        {
          "internalType": "uint248",
          "name": "amount",
          "type": "uint248"
        },
        {
          "internalType": "bool",
          "name": "useAmount0",
          "type": "bool"
        }
      ],
      "stateMutability": "pure",
      "type": "function"
    },
    {
      "inputs": [],
      "name": "owner",
      "outputs": [
        {
          "internalType": "address",
          "name": "",
          "type": "address"
        }
      ],
      "stateMutability": "view",
      "type": "function"
    },
    {
      "inputs": [],
      "name": "renounceOwnership",
      "outputs": [],
      "stateMutability": "nonpayable",
      "type": "function"
    },
    {
      "inputs": [
        {
          "internalType": "bytes32",
          "name": "_vkHash",
          "type": "bytes32"
        }
      ],
      "name": "setVkHash",
      "outputs": [],
      "stateMutability": "nonpayable",
      "type": "function"
    },
    {
      "inputs": [
        {
          "internalType": "address",
          "name": "newOwner",
          "type": "address"
        }
      ],
      "name": "transferOwnership",
      "outputs": [],
      "stateMutability": "nonpayable",
      "type": "function"
    },
    {
      "inputs": [],
      "name": "vkHash",
      "outputs": [
        {
          "internalType": "bytes32",
          "name": "",
          "type": "bytes32"
        }
      ],
      "stateMutability": "view",
      "type": "function"
    }
  ],
  "transactionHash": "0x4ce4e2d340bd6a359413e73a679602f4a0bfb6cec6f88e35792188b481133e3d",
  "args": [
    "0xa082F86d9d1660C29cf3f962A31d7D20E367154F"
  ],
  "numDeployments": 1,
  "solcInputHash": "5d1c75967d38fd8da9d59b1bfd589180",
  "bytecode": "0x6080346100cb57601f61072038819003918201601f19168301916001600160401b038311848410176100d0578084926020946040528339810103126100cb57516001600160a01b0390818116908190036100cb57600080546001600160a01b0319908116909217905533156100b257600154903390821617600155604051913391167f8be0079c531659141344cd1fd0a4f28419497f9722a3daafe3b4186f6b6457e0600080a361063990816100e78239f35b604051631e4fbdf760e01b815260006004820152602490fd5b600080fd5b634e487b7160e01b600052604160045260246000fdfe608060408181526004908136101561001657600080fd5b600092833560e01c90816338931a31146103df575080633bca02fc146102e95780634fe840f5146102ca578063715018a6146102625780637859f6d91461024057806379d6b6a2146101ee5780638da5cb5b146101c25780639711b89d146101245763f2fde38b1461008757600080fd5b34610120576020366003190112610120578135916001600160a01b039182841680940361011c576100b6610466565b83156101065750506001548273ffffffffffffffffffffffffffffffffffffffff19821617600155167f8be0079c531659141344cd1fd0a4f28419497f9722a3daafe3b4186f6b6457e08380a380f35b51631e4fbdf760e01b8152908101849052602490fd5b8480fd5b8280fd5b5082346101bf5760203660031901126101bf5782359067ffffffffffffffff82116101bf575061015d6101bb9361016392369101610438565b90610492565b935167ffffffffffffffff90931683526001600160a01b0390911660208301527effffffffffffffffffffffffffffffffffffffffffffffffffffffffffffff16604082015290151560608201529081906080820190565b0390f35b80fd5b8382346101ea57816003193601126101ea576020906001600160a01b03600154169051908152f35b5080fd5b5034610120573660031901126101ea576024359067ffffffffffffffff82116101205761022161023d9236908301610438565b916102376001600160a01b0386541633146104d7565b35610523565b80f35b5050346101ea5760203660031901126101ea5761025b610466565b3560025580f35b83346101bf57806003193601126101bf5761027b610466565b806001600160a01b0360015473ffffffffffffffffffffffffffffffffffffffff198116600155167f8be0079c531659141344cd1fd0a4f28419497f9722a3daafe3b4186f6b6457e08280a380f35b8382346101ea57816003193601126101ea576020906002549051908152f35b5034610120573660031901126101ea5767ffffffffffffffff9080358281116103db576103199036908301610402565b91909260249384358281116103d7576103359036908501610402565b9061034b6001600160a01b0389541633146104d7565b875b868110610358578880f35b8060051b838210156103c55780830135601e19843603018112156103c15783018035908782116103bd5760200181360381136103bd5761039a92870135610523565b60001981146103ab5760010161034d565b634e487b7160e01b8952601186528789fd5b8b80fd5b8a80fd5b634e487b7160e01b8a5260328752888afd5b8680fd5b8380fd5b8490346101ea57816003193601126101ea576001600160a01b0360209254168152f35b9181601f840112156104335782359167ffffffffffffffff8311610433576020808501948460051b01011161043357565b600080fd5b9181601f840112156104335782359167ffffffffffffffff8311610433576020838186019501011161043357565b6001600160a01b0360015416330361047a57565b60405163118cdaa760e01b8152336004820152602490fd5b908060081161043357813560c01c9281601c1161043357600883013560601c9282603b1161043357601c81013560081c92603c1161043357603b013560f81c60011490565b156104de57565b60405162461bcd60e51b815260206004820152600e60248201527f696e76616c69642063616c6c65720000000000000000000000000000000000006044820152606490fd5b919091600254036105be5761055c6105b9917f90ed365d200a27a77e5eb3cc961698ebc25673ac0aa30054f53931f683fad3d393610492565b6040805167ffffffffffffffff90951685526001600160a01b0390931660208501527effffffffffffffffffffffffffffffffffffffffffffffffffffffffffffff90911691830191909152151560608201529081906080820190565b0390a1565b60405162461bcd60e51b815260206004820152600a60248201527f696e76616c696420766b000000000000000000000000000000000000000000006044820152606490fdfea2646970667358221220b8137d5266841e302ce6ea74a65eb270561193c038dc18cb1d239b8f9eb91e6964736f6c63430008140033",
  "devdoc": {
    "errors": {
      "OwnableInvalidOwner(address)": [
        {
          "details": "The owner is not a valid owner account. (eg. `address(0)`)"
        }
      ],
      "OwnableUnauthorizedAccount(address)": [
        {
          "details": "The caller account is not authorized to perform an operation."
        }
      ]
    },
    "kind": "dev",
    "methods": {
      "owner()": {
        "details": "Returns the address of the current owner."
      },
      "renounceOwnership()": {
        "details": "Leaves the contract without owner. It will not be possible to call `onlyOwner` functions. Can only be called by the current owner. NOTE: Renouncing ownership will leave the contract without an owner, thereby disabling any functionality that is only available to the owner."
      },
      "transferOwnership(address)": {
        "details": "Transfers ownership of the contract to a new account (`newOwner`). Can only be called by the current owner."
      }
    },
    "version": 1
  },
  "userdoc": {
    "kind": "user",
    "methods": {},
    "version": 1
  },
  "storageLayout": {
    "storage": [
      {
        "astId": 348,
        "contract": "contracts/MendiDepth.sol:MendiDepth",
        "label": "brevisRequest",
        "offset": 0,
        "slot": "0",
        "type": "t_address"
      },
      {
        "astId": 8,
        "contract": "contracts/MendiDepth.sol:MendiDepth",
        "label": "_owner",
        "offset": 0,
        "slot": "1",
        "type": "t_address"
      },
      {
        "astId": 197,
        "contract": "contracts/MendiDepth.sol:MendiDepth",
        "label": "vkHash",
        "offset": 0,
        "slot": "2",
        "type": "t_bytes32"
      }
    ],
    "types": {
      "t_address": {
        "encoding": "inplace",
        "label": "address",
        "numberOfBytes": "20"
      },
      "t_bytes32": {
        "encoding": "inplace",
        "label": "bytes32",
        "numberOfBytes": "32"
      }
    }
  }
}